{
  "_format": "hh-sol-artifact-1",
  "contractName": "DepositManager",
  "sourceName": "contracts/DepositManager.sol",
  "abi": [
    {
      "inputs": [
        {
          "internalType": "address",
          "name": "_router",
          "type": "address"
        },
        {
          "internalType": "address",
          "name": "_weth",
          "type": "address"
        },
        {
          "internalType": "address",
          "name": "_ccipSender",
          "type": "address"
        },
        {
          "internalType": "address",
          "name": "_vaultController",
          "type": "address"
        },
        {
          "internalType": "address",
          "name": "_owner",
          "type": "address"
        },
        {
          "internalType": "address",
          "name": "_Omnitoken",
          "type": "address"
        }
      ],
      "stateMutability": "nonpayable",
      "type": "constructor"
    },
    {
      "anonymous": false,
      "inputs": [
        {
          "indexed": true,
          "internalType": "address",
          "name": "user",
          "type": "address"
        },
        {
          "indexed": false,
          "internalType": "uint256",
          "name": "amount",
          "type": "uint256"
        }
      ],
      "name": "Deposited",
      "type": "event"
    },
    {
      "anonymous": false,
      "inputs": [
        {
          "indexed": true,
          "internalType": "address",
          "name": "previousOwner",
          "type": "address"
        },
        {
          "indexed": true,
          "internalType": "address",
          "name": "newOwner",
          "type": "address"
        }
      ],
      "name": "OwnershipTransferred",
      "type": "event"
    },
    {
      "inputs": [],
      "name": "Omnitoken",
      "outputs": [
        {
          "internalType": "contract IERC20",
          "name": "",
          "type": "address"
        }
      ],
      "stateMutability": "view",
      "type": "function"
    },
    {
      "inputs": [],
      "name": "ccipRouter",
      "outputs": [
        {
          "internalType": "contract IRouterClient",
          "name": "",
          "type": "address"
        }
      ],
      "stateMutability": "view",
      "type": "function"
    },
    {
      "inputs": [],
      "name": "ccipSender",
      "outputs": [
        {
          "internalType": "address",
          "name": "",
          "type": "address"
        }
      ],
      "stateMutability": "view",
      "type": "function"
    },
    {
      "inputs": [
        {
          "internalType": "uint256",
          "name": "_exchangeRate",
          "type": "uint256"
        }
      ],
      "name": "depositETH",
      "outputs": [],
      "stateMutability": "payable",
      "type": "function"
    },
    {
      "inputs": [],
      "name": "owner",
      "outputs": [
        {
          "internalType": "address",
          "name": "",
          "type": "address"
        }
      ],
      "stateMutability": "view",
      "type": "function"
    },
    {
      "inputs": [],
      "name": "renounceOwnership",
      "outputs": [],
      "stateMutability": "nonpayable",
      "type": "function"
    },
    {
      "inputs": [
        {
          "internalType": "address",
          "name": "newOwner",
          "type": "address"
        }
      ],
      "name": "transferOwnership",
      "outputs": [],
      "stateMutability": "nonpayable",
      "type": "function"
    },
    {
      "inputs": [],
      "name": "vaultController",
      "outputs": [
        {
          "internalType": "address",
          "name": "",
          "type": "address"
        }
      ],
      "stateMutability": "view",
      "type": "function"
    },
    {
      "inputs": [],
      "name": "weth",
      "outputs": [
        {
          "internalType": "contract IWETH",
          "name": "",
          "type": "address"
        }
      ],
      "stateMutability": "view",
      "type": "function"
    },
    {
      "stateMutability": "payable",
      "type": "receive"
    }
  ],
  "bytecode": "0x60806040523480156200001157600080fd5b50604051620016d1380380620016d18339818101604052810190620000379190620002f6565b620000576200004b620001c060201b60201c565b620001c860201b60201c565b600180819055506200006f82620001c860201b60201c565b85600260006101000a81548173ffffffffffffffffffffffffffffffffffffffff021916908373ffffffffffffffffffffffffffffffffffffffff16021790555084600360006101000a81548173ffffffffffffffffffffffffffffffffffffffff021916908373ffffffffffffffffffffffffffffffffffffffff16021790555083600560006101000a81548173ffffffffffffffffffffffffffffffffffffffff021916908373ffffffffffffffffffffffffffffffffffffffff16021790555082600660006101000a81548173ffffffffffffffffffffffffffffffffffffffff021916908373ffffffffffffffffffffffffffffffffffffffff16021790555080600460006101000a81548173ffffffffffffffffffffffffffffffffffffffff021916908373ffffffffffffffffffffffffffffffffffffffff16021790555050505050505062000392565b600033905090565b60008060009054906101000a900473ffffffffffffffffffffffffffffffffffffffff169050816000806101000a81548173ffffffffffffffffffffffffffffffffffffffff021916908373ffffffffffffffffffffffffffffffffffffffff1602179055508173ffffffffffffffffffffffffffffffffffffffff168173ffffffffffffffffffffffffffffffffffffffff167f8be0079c531659141344cd1fd0a4f28419497f9722a3daafe3b4186f6b6457e060405160405180910390a35050565b600080fd5b600073ffffffffffffffffffffffffffffffffffffffff82169050919050565b6000620002be8262000291565b9050919050565b620002d081620002b1565b8114620002dc57600080fd5b50565b600081519050620002f081620002c5565b92915050565b60008060008060008060c087890312156200031657620003156200028c565b5b60006200032689828a01620002df565b96505060206200033989828a01620002df565b95505060406200034c89828a01620002df565b94505060606200035f89828a01620002df565b93505060806200037289828a01620002df565b92505060a06200038589828a01620002df565b9150509295509295509295565b61132f80620003a26000396000f3fe60806040526004361061008a5760003560e01c8063715018a611610059578063715018a6146101335780638da5cb5b1461014a578063ce057d6414610175578063f2fde38b146101a0578063fabeedc3146101c957610091565b80630de22984146100965780633fc8cef3146100c15780635358fbda146100ec5780635f36b0481461010857610091565b3661009157005b600080fd5b3480156100a257600080fd5b506100ab6101f4565b6040516100b89190610b85565b60405180910390f35b3480156100cd57600080fd5b506100d661021a565b6040516100e39190610bc1565b60405180910390f35b61010660048036038101906101019190610c17565b610240565b005b34801561011457600080fd5b5061011d610517565b60405161012a9190610c65565b60405180910390f35b34801561013f57600080fd5b5061014861053d565b005b34801561015657600080fd5b5061015f610551565b60405161016c9190610c65565b60405180910390f35b34801561018157600080fd5b5061018a61057a565b6040516101979190610c65565b60405180910390f35b3480156101ac57600080fd5b506101c760048036038101906101c29190610cac565b6105a0565b005b3480156101d557600080fd5b506101de610623565b6040516101eb9190610cfa565b60405180910390f35b600260009054906101000a900473ffffffffffffffffffffffffffffffffffffffff1681565b600360009054906101000a900473ffffffffffffffffffffffffffffffffffffffff1681565b610248610649565b6000341161028b576040517f08c379a000000000000000000000000000000000000000000000000000000000815260040161028290610d72565b60405180910390fd5b600360009054906101000a900473ffffffffffffffffffffffffffffffffffffffff1673ffffffffffffffffffffffffffffffffffffffff1663d0e30db0346040518263ffffffff1660e01b81526004016000604051808303818588803b1580156102f557600080fd5b505af1158015610309573d6000803e3d6000fd5b505050505061037d600560009054906101000a900473ffffffffffffffffffffffffffffffffffffffff1634600360009054906101000a900473ffffffffffffffffffffffffffffffffffffffff1673ffffffffffffffffffffffffffffffffffffffff166106989092919063ffffffff16565b600560009054906101000a900473ffffffffffffffffffffffffffffffffffffffff1673ffffffffffffffffffffffffffffffffffffffff1663e73181ad600660009054906101000a900473ffffffffffffffffffffffffffffffffffffffff16600360009054906101000a900473ffffffffffffffffffffffffffffffffffffffff1634336040518563ffffffff1660e01b81526004016104229493929190610da1565b600060405180830381600087803b15801561043c57600080fd5b505af1158015610450573d6000803e3d6000fd5b505050506000606482346104649190610e15565b61046e9190610e15565b90506104bd3382600460009054906101000a900473ffffffffffffffffffffffffffffffffffffffff1673ffffffffffffffffffffffffffffffffffffffff166106989092919063ffffffff16565b3373ffffffffffffffffffffffffffffffffffffffff167f2da466a7b24304f47e87fa2e1e5a81b9831ce54fec19055ce277ca2f39ba42c4346040516105039190610e57565b60405180910390a25061051461071e565b50565b600660009054906101000a900473ffffffffffffffffffffffffffffffffffffffff1681565b610545610727565b61054f60006107a5565b565b60008060009054906101000a900473ffffffffffffffffffffffffffffffffffffffff16905090565b600560009054906101000a900473ffffffffffffffffffffffffffffffffffffffff1681565b6105a8610727565b600073ffffffffffffffffffffffffffffffffffffffff168173ffffffffffffffffffffffffffffffffffffffff1603610617576040517f08c379a000000000000000000000000000000000000000000000000000000000815260040161060e90610ee4565b60405180910390fd5b610620816107a5565b50565b600460009054906101000a900473ffffffffffffffffffffffffffffffffffffffff1681565b60026001540361068e576040517f08c379a000000000000000000000000000000000000000000000000000000000815260040161068590610f50565b60405180910390fd5b6002600181905550565b6107198363a9059cbb60e01b84846040516024016106b7929190610f70565b604051602081830303815290604052907bffffffffffffffffffffffffffffffffffffffffffffffffffffffff19166020820180517bffffffffffffffffffffffffffffffffffffffffffffffffffffffff8381831617835250505050610869565b505050565b60018081905550565b61072f610931565b73ffffffffffffffffffffffffffffffffffffffff1661074d610551565b73ffffffffffffffffffffffffffffffffffffffff16146107a3576040517f08c379a000000000000000000000000000000000000000000000000000000000815260040161079a90610fe5565b60405180910390fd5b565b60008060009054906101000a900473ffffffffffffffffffffffffffffffffffffffff169050816000806101000a81548173ffffffffffffffffffffffffffffffffffffffff021916908373ffffffffffffffffffffffffffffffffffffffff1602179055508173ffffffffffffffffffffffffffffffffffffffff168173ffffffffffffffffffffffffffffffffffffffff167f8be0079c531659141344cd1fd0a4f28419497f9722a3daafe3b4186f6b6457e060405160405180910390a35050565b60006108cb826040518060400160405280602081526020017f5361666545524332303a206c6f772d6c6576656c2063616c6c206661696c65648152508573ffffffffffffffffffffffffffffffffffffffff166109399092919063ffffffff16565b90506000815114806108ed5750808060200190518101906108ec919061103d565b5b61092c576040517f08c379a0000000000000000000000000000000000000000000000000000000008152600401610923906110dc565b60405180910390fd5b505050565b600033905090565b60606109488484600085610951565b90509392505050565b606082471015610996576040517f08c379a000000000000000000000000000000000000000000000000000000000815260040161098d9061116e565b60405180910390fd5b6000808673ffffffffffffffffffffffffffffffffffffffff1685876040516109bf91906111ff565b60006040518083038185875af1925050503d80600081146109fc576040519150601f19603f3d011682016040523d82523d6000602084013e610a01565b606091505b5091509150610a1287838387610a1e565b92505050949350505050565b60608315610a80576000835103610a7857610a3885610a93565b610a77576040517f08c379a0000000000000000000000000000000000000000000000000000000008152600401610a6e90611262565b60405180910390fd5b5b829050610a8b565b610a8a8383610ab6565b5b949350505050565b6000808273ffffffffffffffffffffffffffffffffffffffff163b119050919050565b600082511115610ac95781518083602001fd5b806040517f08c379a0000000000000000000000000000000000000000000000000000000008152600401610afd91906112d7565b60405180910390fd5b600073ffffffffffffffffffffffffffffffffffffffff82169050919050565b6000819050919050565b6000610b4b610b46610b4184610b06565b610b26565b610b06565b9050919050565b6000610b5d82610b30565b9050919050565b6000610b6f82610b52565b9050919050565b610b7f81610b64565b82525050565b6000602082019050610b9a6000830184610b76565b92915050565b6000610bab82610b52565b9050919050565b610bbb81610ba0565b82525050565b6000602082019050610bd66000830184610bb2565b92915050565b600080fd5b6000819050919050565b610bf481610be1565b8114610bff57600080fd5b50565b600081359050610c1181610beb565b92915050565b600060208284031215610c2d57610c2c610bdc565b5b6000610c3b84828501610c02565b91505092915050565b6000610c4f82610b06565b9050919050565b610c5f81610c44565b82525050565b6000602082019050610c7a6000830184610c56565b92915050565b610c8981610c44565b8114610c9457600080fd5b50565b600081359050610ca681610c80565b92915050565b600060208284031215610cc257610cc1610bdc565b5b6000610cd084828501610c97565b91505092915050565b6000610ce482610b52565b9050919050565b610cf481610cd9565b82525050565b6000602082019050610d0f6000830184610ceb565b92915050565b600082825260208201905092915050565b7f5a65726f206465706f7369740000000000000000000000000000000000000000600082015250565b6000610d5c600c83610d15565b9150610d6782610d26565b602082019050919050565b60006020820190508181036000830152610d8b81610d4f565b9050919050565b610d9b81610be1565b82525050565b6000608082019050610db66000830187610c56565b610dc36020830186610c56565b610dd06040830185610d92565b610ddd6060830184610c56565b95945050505050565b7f4e487b7100000000000000000000000000000000000000000000000000000000600052601160045260246000fd5b6000610e2082610be1565b9150610e2b83610be1565b9250828202610e3981610be1565b91508282048414831517610e5057610e4f610de6565b5b5092915050565b6000602082019050610e6c6000830184610d92565b92915050565b7f4f776e61626c653a206e6577206f776e657220697320746865207a65726f206160008201527f6464726573730000000000000000000000000000000000000000000000000000602082015250565b6000610ece602683610d15565b9150610ed982610e72565b604082019050919050565b60006020820190508181036000830152610efd81610ec1565b9050919050565b7f5265656e7472616e637947756172643a207265656e7472616e742063616c6c00600082015250565b6000610f3a601f83610d15565b9150610f4582610f04565b602082019050919050565b60006020820190508181036000830152610f6981610f2d565b9050919050565b6000604082019050610f856000830185610c56565b610f926020830184610d92565b9392505050565b7f4f776e61626c653a2063616c6c6572206973206e6f7420746865206f776e6572600082015250565b6000610fcf602083610d15565b9150610fda82610f99565b602082019050919050565b60006020820190508181036000830152610ffe81610fc2565b9050919050565b60008115159050919050565b61101a81611005565b811461102557600080fd5b50565b60008151905061103781611011565b92915050565b60006020828403121561105357611052610bdc565b5b600061106184828501611028565b91505092915050565b7f5361666545524332303a204552433230206f7065726174696f6e20646964206e60008201527f6f74207375636365656400000000000000000000000000000000000000000000602082015250565b60006110c6602a83610d15565b91506110d18261106a565b604082019050919050565b600060208201905081810360008301526110f5816110b9565b9050919050565b7f416464726573733a20696e73756666696369656e742062616c616e636520666f60008201527f722063616c6c0000000000000000000000000000000000000000000000000000602082015250565b6000611158602683610d15565b9150611163826110fc565b604082019050919050565b600060208201905081810360008301526111878161114b565b9050919050565b600081519050919050565b600081905092915050565b60005b838110156111c25780820151818401526020810190506111a7565b60008484015250505050565b60006111d98261118e565b6111e38185611199565b93506111f38185602086016111a4565b80840191505092915050565b600061120b82846111ce565b915081905092915050565b7f416464726573733a2063616c6c20746f206e6f6e2d636f6e7472616374000000600082015250565b600061124c601d83610d15565b915061125782611216565b602082019050919050565b6000602082019050818103600083015261127b8161123f565b9050919050565b600081519050919050565b6000601f19601f8301169050919050565b60006112a982611282565b6112b38185610d15565b93506112c38185602086016111a4565b6112cc8161128d565b840191505092915050565b600060208201905081810360008301526112f1818461129e565b90509291505056fea26469706673582212208453ef3b270e7ca290cb84de3b68cddb3eb240c853328af54052a4c7e91fe0d764736f6c63430008180033",
  "linkReferences": {},
  "deployedLinkReferences": {}
}