{
  "_format": "hh-sol-artifact-1",
  "contractName": "DepositManager",
  "sourceName": "contracts/DepositManager.sol",
  "abi": [
    {
      "inputs": [
        {
          "internalType": "address",
          "name": "_router",
          "type": "address"
        },
        {
          "internalType": "address",
          "name": "_weth",
          "type": "address"
        },
        {
          "internalType": "address",
          "name": "_ccipSender",
          "type": "address"
        },
        {
          "internalType": "address",
          "name": "_vaultController",
          "type": "address"
        },
        {
          "internalType": "address",
          "name": "_owner",
          "type": "address"
        },
        {
          "internalType": "address",
          "name": "_Omnitoken",
          "type": "address"
        }
      ],
      "stateMutability": "nonpayable",
      "type": "constructor"
    },
    {
      "anonymous": false,
      "inputs": [
        {
          "indexed": true,
          "internalType": "address",
          "name": "user",
          "type": "address"
        },
        {
          "indexed": false,
          "internalType": "uint256",
          "name": "amount",
          "type": "uint256"
        }
      ],
      "name": "Deposited",
      "type": "event"
    },
    {
      "anonymous": false,
      "inputs": [
        {
          "indexed": true,
          "internalType": "address",
          "name": "previousOwner",
          "type": "address"
        },
        {
          "indexed": true,
          "internalType": "address",
          "name": "newOwner",
          "type": "address"
        }
      ],
      "name": "OwnershipTransferred",
      "type": "event"
    },
    {
      "inputs": [],
      "name": "Omnitoken",
      "outputs": [
        {
          "internalType": "contract IERC20",
          "name": "",
          "type": "address"
        }
      ],
      "stateMutability": "view",
      "type": "function"
    },
    {
      "inputs": [],
      "name": "ccipRouter",
      "outputs": [
        {
          "internalType": "contract IRouterClient",
          "name": "",
          "type": "address"
        }
      ],
      "stateMutability": "view",
      "type": "function"
    },
    {
      "inputs": [],
      "name": "ccipSender",
      "outputs": [
        {
          "internalType": "address",
          "name": "",
          "type": "address"
        }
      ],
      "stateMutability": "view",
      "type": "function"
    },
    {
      "inputs": [
        {
          "internalType": "uint256",
          "name": "_exchangeRate",
          "type": "uint256"
        }
      ],
      "name": "depositETH",
      "outputs": [],
      "stateMutability": "payable",
      "type": "function"
    },
    {
      "inputs": [],
      "name": "owner",
      "outputs": [
        {
          "internalType": "address",
          "name": "",
          "type": "address"
        }
      ],
      "stateMutability": "view",
      "type": "function"
    },
    {
      "inputs": [],
      "name": "renounceOwnership",
      "outputs": [],
      "stateMutability": "nonpayable",
      "type": "function"
    },
    {
      "inputs": [
        {
          "internalType": "address",
          "name": "newOwner",
          "type": "address"
        }
      ],
      "name": "transferOwnership",
      "outputs": [],
      "stateMutability": "nonpayable",
      "type": "function"
    },
    {
      "inputs": [],
      "name": "vaultController",
      "outputs": [
        {
          "internalType": "address",
          "name": "",
          "type": "address"
        }
      ],
      "stateMutability": "view",
      "type": "function"
    },
    {
      "inputs": [],
      "name": "weth",
      "outputs": [
        {
          "internalType": "contract IWETH",
          "name": "",
          "type": "address"
        }
      ],
      "stateMutability": "view",
      "type": "function"
    },
    {
      "stateMutability": "payable",
      "type": "receive"
    }
  ],
  "bytecode": "0x60806040523480156200001157600080fd5b5060405162001787380380620017878339818101604052810190620000379190620002f6565b620000576200004b620001c060201b60201c565b620001c860201b60201c565b600180819055506200006f82620001c860201b60201c565b85600260006101000a81548173ffffffffffffffffffffffffffffffffffffffff021916908373ffffffffffffffffffffffffffffffffffffffff16021790555084600360006101000a81548173ffffffffffffffffffffffffffffffffffffffff021916908373ffffffffffffffffffffffffffffffffffffffff16021790555083600560006101000a81548173ffffffffffffffffffffffffffffffffffffffff021916908373ffffffffffffffffffffffffffffffffffffffff16021790555082600660006101000a81548173ffffffffffffffffffffffffffffffffffffffff021916908373ffffffffffffffffffffffffffffffffffffffff16021790555080600460006101000a81548173ffffffffffffffffffffffffffffffffffffffff021916908373ffffffffffffffffffffffffffffffffffffffff16021790555050505050505062000392565b600033905090565b60008060009054906101000a900473ffffffffffffffffffffffffffffffffffffffff169050816000806101000a81548173ffffffffffffffffffffffffffffffffffffffff021916908373ffffffffffffffffffffffffffffffffffffffff1602179055508173ffffffffffffffffffffffffffffffffffffffff168173ffffffffffffffffffffffffffffffffffffffff167f8be0079c531659141344cd1fd0a4f28419497f9722a3daafe3b4186f6b6457e060405160405180910390a35050565b600080fd5b600073ffffffffffffffffffffffffffffffffffffffff82169050919050565b6000620002be8262000291565b9050919050565b620002d081620002b1565b8114620002dc57600080fd5b50565b600081519050620002f081620002c5565b92915050565b60008060008060008060c087890312156200031657620003156200028c565b5b60006200032689828a01620002df565b96505060206200033989828a01620002df565b95505060406200034c89828a01620002df565b94505060606200035f89828a01620002df565b93505060806200037289828a01620002df565b92505060a06200038589828a01620002df565b9150509295509295509295565b6113e580620003a26000396000f3fe60806040526004361061008a5760003560e01c8063715018a611610059578063715018a6146101335780638da5cb5b1461014a578063ce057d6414610175578063f2fde38b146101a0578063fabeedc3146101c957610091565b80630de22984146100965780633fc8cef3146100c15780635358fbda146100ec5780635f36b0481461010857610091565b3661009157005b600080fd5b3480156100a257600080fd5b506100ab6101f4565b6040516100b89190610bcf565b60405180910390f35b3480156100cd57600080fd5b506100d661021a565b6040516100e39190610c0b565b60405180910390f35b61010660048036038101906101019190610c61565b610240565b005b34801561011457600080fd5b5061011d610561565b60405161012a9190610caf565b60405180910390f35b34801561013f57600080fd5b50610148610587565b005b34801561015657600080fd5b5061015f61059b565b60405161016c9190610caf565b60405180910390f35b34801561018157600080fd5b5061018a6105c4565b6040516101979190610caf565b60405180910390f35b3480156101ac57600080fd5b506101c760048036038101906101c29190610cf6565b6105ea565b005b3480156101d557600080fd5b506101de61066d565b6040516101eb9190610d44565b60405180910390f35b600260009054906101000a900473ffffffffffffffffffffffffffffffffffffffff1681565b600360009054906101000a900473ffffffffffffffffffffffffffffffffffffffff1681565b610248610693565b6000341161028b576040517f08c379a000000000000000000000000000000000000000000000000000000000815260040161028290610dbc565b60405180910390fd5b600081116102ce576040517f08c379a00000000000000000000000000000000000000000000000000000000081526004016102c590610e28565b60405180910390fd5b600360009054906101000a900473ffffffffffffffffffffffffffffffffffffffff1673ffffffffffffffffffffffffffffffffffffffff1663d0e30db0346040518263ffffffff1660e01b81526004016000604051808303818588803b15801561033857600080fd5b505af115801561034c573d6000803e3d6000fd5b50505050506103c0600560009054906101000a900473ffffffffffffffffffffffffffffffffffffffff1634600360009054906101000a900473ffffffffffffffffffffffffffffffffffffffff1673ffffffffffffffffffffffffffffffffffffffff166106e29092919063ffffffff16565b600560009054906101000a900473ffffffffffffffffffffffffffffffffffffffff1673ffffffffffffffffffffffffffffffffffffffff1663e73181ad600660009054906101000a900473ffffffffffffffffffffffffffffffffffffffff16600360009054906101000a900473ffffffffffffffffffffffffffffffffffffffff1634336040518563ffffffff1660e01b81526004016104659493929190610e57565b600060405180830381600087803b15801561047f57600080fd5b505af1158015610493573d6000803e3d6000fd5b505050506000670de0b6b3a764000082346104ae9190610ecb565b6104b89190610ecb565b90506105073382600460009054906101000a900473ffffffffffffffffffffffffffffffffffffffff1673ffffffffffffffffffffffffffffffffffffffff166106e29092919063ffffffff16565b3373ffffffffffffffffffffffffffffffffffffffff167f2da466a7b24304f47e87fa2e1e5a81b9831ce54fec19055ce277ca2f39ba42c43460405161054d9190610f0d565b60405180910390a25061055e610768565b50565b600660009054906101000a900473ffffffffffffffffffffffffffffffffffffffff1681565b61058f610771565b61059960006107ef565b565b60008060009054906101000a900473ffffffffffffffffffffffffffffffffffffffff16905090565b600560009054906101000a900473ffffffffffffffffffffffffffffffffffffffff1681565b6105f2610771565b600073ffffffffffffffffffffffffffffffffffffffff168173ffffffffffffffffffffffffffffffffffffffff1603610661576040517f08c379a000000000000000000000000000000000000000000000000000000000815260040161065890610f9a565b60405180910390fd5b61066a816107ef565b50565b600460009054906101000a900473ffffffffffffffffffffffffffffffffffffffff1681565b6002600154036106d8576040517f08c379a00000000000000000000000000000000000000000000000000000000081526004016106cf90611006565b60405180910390fd5b6002600181905550565b6107638363a9059cbb60e01b8484604051602401610701929190611026565b604051602081830303815290604052907bffffffffffffffffffffffffffffffffffffffffffffffffffffffff19166020820180517bffffffffffffffffffffffffffffffffffffffffffffffffffffffff83818316178352505050506108b3565b505050565b60018081905550565b61077961097b565b73ffffffffffffffffffffffffffffffffffffffff1661079761059b565b73ffffffffffffffffffffffffffffffffffffffff16146107ed576040517f08c379a00000000000000000000000000000000000000000000000000000000081526004016107e49061109b565b60405180910390fd5b565b60008060009054906101000a900473ffffffffffffffffffffffffffffffffffffffff169050816000806101000a81548173ffffffffffffffffffffffffffffffffffffffff021916908373ffffffffffffffffffffffffffffffffffffffff1602179055508173ffffffffffffffffffffffffffffffffffffffff168173ffffffffffffffffffffffffffffffffffffffff167f8be0079c531659141344cd1fd0a4f28419497f9722a3daafe3b4186f6b6457e060405160405180910390a35050565b6000610915826040518060400160405280602081526020017f5361666545524332303a206c6f772d6c6576656c2063616c6c206661696c65648152508573ffffffffffffffffffffffffffffffffffffffff166109839092919063ffffffff16565b905060008151148061093757508080602001905181019061093691906110f3565b5b610976576040517f08c379a000000000000000000000000000000000000000000000000000000000815260040161096d90611192565b60405180910390fd5b505050565b600033905090565b6060610992848460008561099b565b90509392505050565b6060824710156109e0576040517f08c379a00000000000000000000000000000000000000000000000000000000081526004016109d790611224565b60405180910390fd5b6000808673ffffffffffffffffffffffffffffffffffffffff168587604051610a0991906112b5565b60006040518083038185875af1925050503d8060008114610a46576040519150601f19603f3d011682016040523d82523d6000602084013e610a4b565b606091505b5091509150610a5c87838387610a68565b92505050949350505050565b60608315610aca576000835103610ac257610a8285610add565b610ac1576040517f08c379a0000000000000000000000000000000000000000000000000000000008152600401610ab890611318565b60405180910390fd5b5b829050610ad5565b610ad48383610b00565b5b949350505050565b6000808273ffffffffffffffffffffffffffffffffffffffff163b119050919050565b600082511115610b135781518083602001fd5b806040517f08c379a0000000000000000000000000000000000000000000000000000000008152600401610b47919061138d565b60405180910390fd5b600073ffffffffffffffffffffffffffffffffffffffff82169050919050565b6000819050919050565b6000610b95610b90610b8b84610b50565b610b70565b610b50565b9050919050565b6000610ba782610b7a565b9050919050565b6000610bb982610b9c565b9050919050565b610bc981610bae565b82525050565b6000602082019050610be46000830184610bc0565b92915050565b6000610bf582610b9c565b9050919050565b610c0581610bea565b82525050565b6000602082019050610c206000830184610bfc565b92915050565b600080fd5b6000819050919050565b610c3e81610c2b565b8114610c4957600080fd5b50565b600081359050610c5b81610c35565b92915050565b600060208284031215610c7757610c76610c26565b5b6000610c8584828501610c4c565b91505092915050565b6000610c9982610b50565b9050919050565b610ca981610c8e565b82525050565b6000602082019050610cc46000830184610ca0565b92915050565b610cd381610c8e565b8114610cde57600080fd5b50565b600081359050610cf081610cca565b92915050565b600060208284031215610d0c57610d0b610c26565b5b6000610d1a84828501610ce1565b91505092915050565b6000610d2e82610b9c565b9050919050565b610d3e81610d23565b82525050565b6000602082019050610d596000830184610d35565b92915050565b600082825260208201905092915050565b7f5a65726f206465706f7369740000000000000000000000000000000000000000600082015250565b6000610da6600c83610d5f565b9150610db182610d70565b602082019050919050565b60006020820190508181036000830152610dd581610d99565b9050919050565b7f496e76616c69642065786368616e676520726174650000000000000000000000600082015250565b6000610e12601583610d5f565b9150610e1d82610ddc565b602082019050919050565b60006020820190508181036000830152610e4181610e05565b9050919050565b610e5181610c2b565b82525050565b6000608082019050610e6c6000830187610ca0565b610e796020830186610ca0565b610e866040830185610e48565b610e936060830184610ca0565b95945050505050565b7f4e487b7100000000000000000000000000000000000000000000000000000000600052601160045260246000fd5b6000610ed682610c2b565b9150610ee183610c2b565b9250828202610eef81610c2b565b91508282048414831517610f0657610f05610e9c565b5b5092915050565b6000602082019050610f226000830184610e48565b92915050565b7f4f776e61626c653a206e6577206f776e657220697320746865207a65726f206160008201527f6464726573730000000000000000000000000000000000000000000000000000602082015250565b6000610f84602683610d5f565b9150610f8f82610f28565b604082019050919050565b60006020820190508181036000830152610fb381610f77565b9050919050565b7f5265656e7472616e637947756172643a207265656e7472616e742063616c6c00600082015250565b6000610ff0601f83610d5f565b9150610ffb82610fba565b602082019050919050565b6000602082019050818103600083015261101f81610fe3565b9050919050565b600060408201905061103b6000830185610ca0565b6110486020830184610e48565b9392505050565b7f4f776e61626c653a2063616c6c6572206973206e6f7420746865206f776e6572600082015250565b6000611085602083610d5f565b91506110908261104f565b602082019050919050565b600060208201905081810360008301526110b481611078565b9050919050565b60008115159050919050565b6110d0816110bb565b81146110db57600080fd5b50565b6000815190506110ed816110c7565b92915050565b60006020828403121561110957611108610c26565b5b6000611117848285016110de565b91505092915050565b7f5361666545524332303a204552433230206f7065726174696f6e20646964206e60008201527f6f74207375636365656400000000000000000000000000000000000000000000602082015250565b600061117c602a83610d5f565b915061118782611120565b604082019050919050565b600060208201905081810360008301526111ab8161116f565b9050919050565b7f416464726573733a20696e73756666696369656e742062616c616e636520666f60008201527f722063616c6c0000000000000000000000000000000000000000000000000000602082015250565b600061120e602683610d5f565b9150611219826111b2565b604082019050919050565b6000602082019050818103600083015261123d81611201565b9050919050565b600081519050919050565b600081905092915050565b60005b8381101561127857808201518184015260208101905061125d565b60008484015250505050565b600061128f82611244565b611299818561124f565b93506112a981856020860161125a565b80840191505092915050565b60006112c18284611284565b915081905092915050565b7f416464726573733a2063616c6c20746f206e6f6e2d636f6e7472616374000000600082015250565b6000611302601d83610d5f565b915061130d826112cc565b602082019050919050565b60006020820190508181036000830152611331816112f5565b9050919050565b600081519050919050565b6000601f19601f8301169050919050565b600061135f82611338565b6113698185610d5f565b935061137981856020860161125a565b61138281611343565b840191505092915050565b600060208201905081810360008301526113a78184611354565b90509291505056fea2646970667358221220858414b8ecfc317d533ac8ae37c796f98da3b06fb8269254e47b42b6aa99ee5e64736f6c63430008180033",
  "linkReferences": {},
  "deployedLinkReferences": {}
}