{
  "_format": "hh-sol-artifact-1",
  "contractName": "Forwarder",
  "sourceName": "contracts/Forwarder.sol",
  "abi": [
    {
      "inputs": [
        {
          "internalType": "address",
          "name": "_target",
          "type": "address"
        }
      ],
      "stateMutability": "nonpayable",
      "type": "constructor"
    },
    {
      "anonymous": false,
      "inputs": [
        {
          "indexed": true,
          "internalType": "address",
          "name": "user",
          "type": "address"
        },
        {
          "indexed": false,
          "internalType": "uint256",
          "name": "amount",
          "type": "uint256"
        }
      ],
      "name": "ETHForwarded",
      "type": "event"
    },
    {
      "anonymous": false,
      "inputs": [
        {
          "indexed": true,
          "internalType": "address",
          "name": "newOwner",
          "type": "address"
        }
      ],
      "name": "OwnershipClaimed",
      "type": "event"
    },
    {
      "inputs": [],
      "name": "claimOwnership",
      "outputs": [],
      "stateMutability": "nonpayable",
      "type": "function"
    },
    {
      "inputs": [],
      "name": "currentOwner",
      "outputs": [
        {
          "internalType": "address",
          "name": "",
          "type": "address"
        }
      ],
      "stateMutability": "view",
      "type": "function"
    },
    {
      "inputs": [
        {
          "internalType": "address",
          "name": "_user",
          "type": "address"
        }
      ],
      "name": "forward",
      "outputs": [],
      "stateMutability": "nonpayable",
      "type": "function"
    },
    {
      "inputs": [],
      "name": "target",
      "outputs": [
        {
          "internalType": "address",
          "name": "",
          "type": "address"
        }
      ],
      "stateMutability": "view",
      "type": "function"
    },
    {
      "stateMutability": "payable",
      "type": "receive"
    }
  ],
  "bytecode": "0x60a060405234801561001057600080fd5b506040516107ed3803806107ed833981810160405281019061003291906100cf565b8073ffffffffffffffffffffffffffffffffffffffff1660808173ffffffffffffffffffffffffffffffffffffffff1681525050506100fc565b600080fd5b600073ffffffffffffffffffffffffffffffffffffffff82169050919050565b600061009c82610071565b9050919050565b6100ac81610091565b81146100b757600080fd5b50565b6000815190506100c9816100a3565b92915050565b6000602082840312156100e5576100e461006c565b5b60006100f3848285016100ba565b91505092915050565b6080516106c8610125600039600081816101310152818161031d015261041101526106c86000f3fe6080604052600436106100435760003560e01c8063101e89521461004f5780634e71e0c814610078578063b387ef921461008f578063d4b83992146100ba5761004a565b3661004a57005b600080fd5b34801561005b57600080fd5b5061007660048036038101906100719190610496565b6100e5565b005b34801561008457600080fd5b5061008d6102db565b005b34801561009b57600080fd5b506100a46103eb565b6040516100b191906104d2565b60405180910390f35b3480156100c657600080fd5b506100cf61040f565b6040516100dc91906104d2565b60405180910390f35b60004790506000811161012d576040517f08c379a00000000000000000000000000000000000000000000000000000000081526004016101249061054a565b60405180910390fd5b60007f000000000000000000000000000000000000000000000000000000000000000073ffffffffffffffffffffffffffffffffffffffff16828460405160240161017891906104d2565b6040516020818303038152906040527fb63b6d7e000000000000000000000000000000000000000000000000000000007bffffffffffffffffffffffffffffffffffffffffffffffffffffffff19166020820180517bffffffffffffffffffffffffffffffffffffffffffffffffffffffff838183161783525050505060405161020291906105db565b60006040518083038185875af1925050503d806000811461023f576040519150601f19603f3d011682016040523d82523d6000602084013e610244565b606091505b5050905080610288576040517f08c379a000000000000000000000000000000000000000000000000000000000815260040161027f9061063e565b60405180910390fd5b8273ffffffffffffffffffffffffffffffffffffffff167f81dbed793c44e11f6f04d977bad497142f41559ca59d2bb099fbcb1762a75493836040516102ce9190610677565b60405180910390a2505050565b336000806101000a81548173ffffffffffffffffffffffffffffffffffffffff021916908373ffffffffffffffffffffffffffffffffffffffff1602179055507f000000000000000000000000000000000000000000000000000000000000000073ffffffffffffffffffffffffffffffffffffffff1663f2fde38b336040518263ffffffff1660e01b815260040161037491906104d2565b600060405180830381600087803b15801561038e57600080fd5b505af11580156103a2573d6000803e3d6000fd5b505050503373ffffffffffffffffffffffffffffffffffffffff167fecc717caa84c9daa46bb6b26d28ecb71e7a9c80028f5bac1983acf4f698c863e60405160405180910390a2565b60008054906101000a900473ffffffffffffffffffffffffffffffffffffffff1681565b7f000000000000000000000000000000000000000000000000000000000000000081565b600080fd5b600073ffffffffffffffffffffffffffffffffffffffff82169050919050565b600061046382610438565b9050919050565b61047381610458565b811461047e57600080fd5b50565b6000813590506104908161046a565b92915050565b6000602082840312156104ac576104ab610433565b5b60006104ba84828501610481565b91505092915050565b6104cc81610458565b82525050565b60006020820190506104e760008301846104c3565b92915050565b600082825260208201905092915050565b7f4e6f7468696e6720746f20666f72776172640000000000000000000000000000600082015250565b60006105346012836104ed565b915061053f826104fe565b602082019050919050565b6000602082019050818103600083015261056381610527565b9050919050565b600081519050919050565b600081905092915050565b60005b8381101561059e578082015181840152602081019050610583565b60008484015250505050565b60006105b58261056a565b6105bf8185610575565b93506105cf818560208601610580565b80840191505092915050565b60006105e782846105aa565b915081905092915050565b7f466f7277617264696e67206661696c6564000000000000000000000000000000600082015250565b60006106286011836104ed565b9150610633826105f2565b602082019050919050565b600060208201905081810360008301526106578161061b565b9050919050565b6000819050919050565b6106718161065e565b82525050565b600060208201905061068c6000830184610668565b9291505056fea264697066735822122075af1b3f117c1c958749a482e660bbad384cff37efbaaa0710dd5b6da256799664736f6c63430008180033",
  "linkReferences": {},
  "deployedLinkReferences": {}
}