{
  "_format": "hh-sol-artifact-1",
  "contractName": "Forwarder",
  "sourceName": "contracts/Forwarder.sol",
  "abi": [
    {
      "inputs": [
        {
          "internalType": "address",
          "name": "_target",
          "type": "address"
        }
      ],
      "stateMutability": "nonpayable",
      "type": "constructor"
    },
    {
      "anonymous": false,
      "inputs": [
        {
          "indexed": true,
          "internalType": "address",
          "name": "user",
          "type": "address"
        },
        {
          "indexed": false,
          "internalType": "uint256",
          "name": "amount",
          "type": "uint256"
        }
      ],
      "name": "ETHForwarded",
      "type": "event"
    },
    {
      "anonymous": false,
      "inputs": [
        {
          "indexed": true,
          "internalType": "address",
          "name": "contractAddress",
          "type": "address"
        },
        {
          "indexed": false,
          "internalType": "uint256",
          "name": "amount",
          "type": "uint256"
        }
      ],
      "name": "ETHForwardedToContract",
      "type": "event"
    },
    {
      "anonymous": false,
      "inputs": [
        {
          "indexed": true,
          "internalType": "address",
          "name": "newOwner",
          "type": "address"
        }
      ],
      "name": "OwnershipClaimed",
      "type": "event"
    },
    {
      "inputs": [],
      "name": "claimOwnership",
      "outputs": [],
      "stateMutability": "nonpayable",
      "type": "function"
    },
    {
      "inputs": [],
      "name": "currentOwner",
      "outputs": [
        {
          "internalType": "address",
          "name": "",
          "type": "address"
        }
      ],
      "stateMutability": "view",
      "type": "function"
    },
    {
      "inputs": [
        {
          "internalType": "address",
          "name": "_user",
          "type": "address"
        }
      ],
      "name": "forward",
      "outputs": [],
      "stateMutability": "nonpayable",
      "type": "function"
    },
    {
      "inputs": [
        {
          "internalType": "address payable",
          "name": "contractAddress",
          "type": "address"
        }
      ],
      "name": "forwarderEth",
      "outputs": [],
      "stateMutability": "nonpayable",
      "type": "function"
    },
    {
      "inputs": [],
      "name": "target",
      "outputs": [
        {
          "internalType": "address",
          "name": "",
          "type": "address"
        }
      ],
      "stateMutability": "view",
      "type": "function"
    },
    {
      "stateMutability": "payable",
      "type": "receive"
    }
  ],
  "bytecode": "0x60a060405234801561001057600080fd5b50604051610b55380380610b55833981810160405281019061003291906100cf565b8073ffffffffffffffffffffffffffffffffffffffff1660808173ffffffffffffffffffffffffffffffffffffffff1681525050506100fc565b600080fd5b600073ffffffffffffffffffffffffffffffffffffffff82169050919050565b600061009c82610071565b9050919050565b6100ac81610091565b81146100b757600080fd5b50565b6000815190506100c9816100a3565b92915050565b6000602082840312156100e5576100e461006c565b5b60006100f3848285016100ba565b91505092915050565b608051610a30610125600039600081816101650152818161050701526105fb0152610a306000f3fe60806040526004361061004e5760003560e01c8063101e89521461005a578063117da634146100835780634e71e0c8146100ac578063b387ef92146100c3578063d4b83992146100ee57610055565b3661005557005b600080fd5b34801561006657600080fd5b50610081600480360381019061007c9190610680565b610119565b005b34801561008f57600080fd5b506100aa60048036038101906100a591906106eb565b61030f565b005b3480156100b857600080fd5b506100c16104c5565b005b3480156100cf57600080fd5b506100d86105d5565b6040516100e59190610727565b60405180910390f35b3480156100fa57600080fd5b506101036105f9565b6040516101109190610727565b60405180910390f35b600047905060008111610161576040517f08c379a00000000000000000000000000000000000000000000000000000000081526004016101589061079f565b60405180910390fd5b60007f000000000000000000000000000000000000000000000000000000000000000073ffffffffffffffffffffffffffffffffffffffff1682846040516024016101ac9190610727565b6040516020818303038152906040527fb63b6d7e000000000000000000000000000000000000000000000000000000007bffffffffffffffffffffffffffffffffffffffffffffffffffffffff19166020820180517bffffffffffffffffffffffffffffffffffffffffffffffffffffffff83818316178352505050506040516102369190610830565b60006040518083038185875af1925050503d8060008114610273576040519150601f19603f3d011682016040523d82523d6000602084013e610278565b606091505b50509050806102bc576040517f08c379a00000000000000000000000000000000000000000000000000000000081526004016102b390610893565b60405180910390fd5b8273ffffffffffffffffffffffffffffffffffffffff167f81dbed793c44e11f6f04d977bad497142f41559ca59d2bb099fbcb1762a754938360405161030291906108cc565b60405180910390a2505050565b600047905060008111610357576040517f08c379a000000000000000000000000000000000000000000000000000000000815260040161034e9061079f565b60405180910390fd5b600073ffffffffffffffffffffffffffffffffffffffff168273ffffffffffffffffffffffffffffffffffffffff16036103c6576040517f08c379a00000000000000000000000000000000000000000000000000000000081526004016103bd90610933565b60405180910390fd5b60008273ffffffffffffffffffffffffffffffffffffffff16826040516103ec90610979565b60006040518083038185875af1925050503d8060008114610429576040519150601f19603f3d011682016040523d82523d6000602084013e61042e565b606091505b5050905080610472576040517f08c379a0000000000000000000000000000000000000000000000000000000008152600401610469906109da565b60405180910390fd5b8273ffffffffffffffffffffffffffffffffffffffff167fde2751af6a72cfd5092ad0c304fa42be827f417b9439f206e8b0880925b107ba836040516104b891906108cc565b60405180910390a2505050565b336000806101000a81548173ffffffffffffffffffffffffffffffffffffffff021916908373ffffffffffffffffffffffffffffffffffffffff1602179055507f000000000000000000000000000000000000000000000000000000000000000073ffffffffffffffffffffffffffffffffffffffff1663f2fde38b336040518263ffffffff1660e01b815260040161055e9190610727565b600060405180830381600087803b15801561057857600080fd5b505af115801561058c573d6000803e3d6000fd5b505050503373ffffffffffffffffffffffffffffffffffffffff167fecc717caa84c9daa46bb6b26d28ecb71e7a9c80028f5bac1983acf4f698c863e60405160405180910390a2565b60008054906101000a900473ffffffffffffffffffffffffffffffffffffffff1681565b7f000000000000000000000000000000000000000000000000000000000000000081565b600080fd5b600073ffffffffffffffffffffffffffffffffffffffff82169050919050565b600061064d82610622565b9050919050565b61065d81610642565b811461066857600080fd5b50565b60008135905061067a81610654565b92915050565b6000602082840312156106965761069561061d565b5b60006106a48482850161066b565b91505092915050565b60006106b882610622565b9050919050565b6106c8816106ad565b81146106d357600080fd5b50565b6000813590506106e5816106bf565b92915050565b6000602082840312156107015761070061061d565b5b600061070f848285016106d6565b91505092915050565b61072181610642565b82525050565b600060208201905061073c6000830184610718565b92915050565b600082825260208201905092915050565b7f4e6f7468696e6720746f20666f72776172640000000000000000000000000000600082015250565b6000610789601283610742565b915061079482610753565b602082019050919050565b600060208201905081810360008301526107b88161077c565b9050919050565b600081519050919050565b600081905092915050565b60005b838110156107f35780820151818401526020810190506107d8565b60008484015250505050565b600061080a826107bf565b61081481856107ca565b93506108248185602086016107d5565b80840191505092915050565b600061083c82846107ff565b915081905092915050565b7f466f7277617264696e67206661696c6564000000000000000000000000000000600082015250565b600061087d601183610742565b915061088882610847565b602082019050919050565b600060208201905081810360008301526108ac81610870565b9050919050565b6000819050919050565b6108c6816108b3565b82525050565b60006020820190506108e160008301846108bd565b92915050565b7f496e76616c696420636f6e747261637420616464726573730000000000000000600082015250565b600061091d601883610742565b9150610928826108e7565b602082019050919050565b6000602082019050818103600083015261094c81610910565b9050919050565b50565b60006109636000836107ca565b915061096e82610953565b600082019050919050565b600061098482610956565b9150819050919050565b7f4554482073656e64206661696c65640000000000000000000000000000000000600082015250565b60006109c4600f83610742565b91506109cf8261098e565b602082019050919050565b600060208201905081810360008301526109f3816109b7565b905091905056fea26469706673582212200d94aea66451b30dd25205e6dcdf5935e4bfca6b9af2f7fb05b3d8082208dbf064736f6c63430008180033",
  "linkReferences": {},
  "deployedLinkReferences": {}
}