{
  "_format": "hh-sol-artifact-1",
  "contractName": "OLstBurn",
  "sourceName": "contracts/WithdrawalManager/Arbitrum/OLstBurn.sol",
  "abi": [
    {
      "inputs": [
        {
          "internalType": "address",
          "name": "_oLSTToken",
          "type": "address"
        }
      ],
      "stateMutability": "payable",
      "type": "constructor"
    },
    {
      "inputs": [],
      "name": "oLSTToken",
      "outputs": [
        {
          "internalType": "contract IoLST",
          "name": "",
          "type": "address"
        }
      ],
      "stateMutability": "view",
      "type": "function"
    },
    {
      "inputs": [
        {
          "internalType": "uint256",
          "name": "oLSTAmount",
          "type": "uint256"
        }
      ],
      "name": "withdrawETH",
      "outputs": [
        {
          "internalType": "address",
          "name": "user",
          "type": "address"
        },
        {
          "internalType": "uint256",
          "name": "amountETH",
          "type": "uint256"
        }
      ],
      "stateMutability": "nonpayable",
      "type": "function"
    },
    {
      "stateMutability": "payable",
      "type": "receive"
    }
  ],
  "bytecode": "0x608060405260405161059e38038061059e833981810160405281019061002591906100d7565b600160008190555080600160006101000a81548173ffffffffffffffffffffffffffffffffffffffff021916908373ffffffffffffffffffffffffffffffffffffffff16021790555050610104565b600080fd5b600073ffffffffffffffffffffffffffffffffffffffff82169050919050565b60006100a482610079565b9050919050565b6100b481610099565b81146100bf57600080fd5b50565b6000815190506100d1816100ab565b92915050565b6000602082840312156100ed576100ec610074565b5b60006100fb848285016100c2565b91505092915050565b61048b806101136000396000f3fe60806040526004361061002d5760003560e01c8063d16bbe5f14610039578063f14210a61461006457610034565b3661003457005b600080fd5b34801561004557600080fd5b5061004e6100a2565b60405161005b9190610290565b60405180910390f35b34801561007057600080fd5b5061008b600480360381019061008691906102e6565b6100c8565b604051610099929190610343565b60405180910390f35b600160009054906101000a900473ffffffffffffffffffffffffffffffffffffffff1681565b6000806100d36101b8565b60008311610116576040517f08c379a000000000000000000000000000000000000000000000000000000000815260040161010d906103c9565b60405180910390fd5b600160009054906101000a900473ffffffffffffffffffffffffffffffffffffffff1673ffffffffffffffffffffffffffffffffffffffff166379cc679033856040518363ffffffff1660e01b8152600401610173929190610343565b600060405180830381600087803b15801561018d57600080fd5b505af11580156101a1573d6000803e3d6000fd5b505050503383915091506101b3610207565b915091565b6002600054036101fd576040517f08c379a00000000000000000000000000000000000000000000000000000000081526004016101f490610435565b60405180910390fd5b6002600081905550565b6001600081905550565b600073ffffffffffffffffffffffffffffffffffffffff82169050919050565b6000819050919050565b600061025661025161024c84610211565b610231565b610211565b9050919050565b60006102688261023b565b9050919050565b600061027a8261025d565b9050919050565b61028a8161026f565b82525050565b60006020820190506102a56000830184610281565b92915050565b600080fd5b6000819050919050565b6102c3816102b0565b81146102ce57600080fd5b50565b6000813590506102e0816102ba565b92915050565b6000602082840312156102fc576102fb6102ab565b5b600061030a848285016102d1565b91505092915050565b600061031e82610211565b9050919050565b61032e81610313565b82525050565b61033d816102b0565b82525050565b60006040820190506103586000830185610325565b6103656020830184610334565b9392505050565b600082825260208201905092915050565b7f416d6f756e74206d757374206265203e20300000000000000000000000000000600082015250565b60006103b360128361036c565b91506103be8261037d565b602082019050919050565b600060208201905081810360008301526103e2816103a6565b9050919050565b7f5265656e7472616e637947756172643a207265656e7472616e742063616c6c00600082015250565b600061041f601f8361036c565b915061042a826103e9565b602082019050919050565b6000602082019050818103600083015261044e81610412565b905091905056fea264697066735822122008d278b18930476da73a18e57c32b6bdc05f74012e0725ce6e6e2fa4ca137a7864736f6c63430008180033",
  "linkReferences": {},
  "deployedLinkReferences": {}
}