{
  "_format": "hh-sol-artifact-1",
  "contractName": "OLstBurn",
  "sourceName": "contracts/WithdrawalManager/Arbitrum/OLstBurn.sol",
  "abi": [
    {
      "inputs": [
        {
          "internalType": "address",
          "name": "_oLSTToken",
          "type": "address"
        }
      ],
      "stateMutability": "payable",
      "type": "constructor"
    },
    {
      "anonymous": false,
      "inputs": [
        {
          "indexed": true,
          "internalType": "address",
          "name": "user",
          "type": "address"
        },
        {
          "indexed": false,
          "internalType": "uint256",
          "name": "olstBurned",
          "type": "uint256"
        },
        {
          "indexed": false,
          "internalType": "uint256",
          "name": "ethReturned",
          "type": "uint256"
        }
      ],
      "name": "Withdrawn",
      "type": "event"
    },
    {
      "inputs": [],
      "name": "oLSTToken",
      "outputs": [
        {
          "internalType": "contract IoLST",
          "name": "",
          "type": "address"
        }
      ],
      "stateMutability": "view",
      "type": "function"
    },
    {
      "inputs": [
        {
          "internalType": "uint256",
          "name": "oLSTAmount",
          "type": "uint256"
        }
      ],
      "name": "withdrawETH",
      "outputs": [
        {
          "internalType": "address",
          "name": "user",
          "type": "address"
        },
        {
          "internalType": "uint256",
          "name": "amountETH",
          "type": "uint256"
        }
      ],
      "stateMutability": "nonpayable",
      "type": "function"
    },
    {
      "stateMutability": "payable",
      "type": "receive"
    }
  ],
  "bytecode": "0x6080604052604051610715380380610715833981810160405281019061002591906100d7565b600160008190555080600160006101000a81548173ffffffffffffffffffffffffffffffffffffffff021916908373ffffffffffffffffffffffffffffffffffffffff16021790555050610104565b600080fd5b600073ffffffffffffffffffffffffffffffffffffffff82169050919050565b60006100a482610079565b9050919050565b6100b481610099565b81146100bf57600080fd5b50565b6000815190506100d1816100ab565b92915050565b6000602082840312156100ed576100ec610074565b5b60006100fb848285016100c2565b91505092915050565b610602806101136000396000f3fe60806040526004361061002d5760003560e01c8063d16bbe5f14610039578063f14210a61461006457610034565b3661003457005b600080fd5b34801561004557600080fd5b5061004e6100a2565b60405161005b919061030d565b60405180910390f35b34801561007057600080fd5b5061008b60048036038101906100869190610363565b6100c8565b6040516100999291906103c0565b60405180910390f35b600160009054906101000a900473ffffffffffffffffffffffffffffffffffffffff1681565b6000806100d3610235565b60008311610116576040517f08c379a000000000000000000000000000000000000000000000000000000000815260040161010d90610446565b60405180910390fd5b600160009054906101000a900473ffffffffffffffffffffffffffffffffffffffff1673ffffffffffffffffffffffffffffffffffffffff166379cc679033856040518363ffffffff1660e01b81526004016101739291906103c0565b600060405180830381600087803b15801561018d57600080fd5b505af11580156101a1573d6000803e3d6000fd5b505050506000683635c9adc5dea00000670de0b6b3a7640000856101c59190610495565b6101cf9190610506565b90503373ffffffffffffffffffffffffffffffffffffffff167f92ccf450a286a957af52509bc1c9939d1a6a481783e142e41e2499f0bb66ebc68583604051610219929190610537565b60405180910390a233849250925050610230610284565b915091565b60026000540361027a576040517f08c379a0000000000000000000000000000000000000000000000000000000008152600401610271906105ac565b60405180910390fd5b6002600081905550565b6001600081905550565b600073ffffffffffffffffffffffffffffffffffffffff82169050919050565b6000819050919050565b60006102d36102ce6102c98461028e565b6102ae565b61028e565b9050919050565b60006102e5826102b8565b9050919050565b60006102f7826102da565b9050919050565b610307816102ec565b82525050565b600060208201905061032260008301846102fe565b92915050565b600080fd5b6000819050919050565b6103408161032d565b811461034b57600080fd5b50565b60008135905061035d81610337565b92915050565b60006020828403121561037957610378610328565b5b60006103878482850161034e565b91505092915050565b600061039b8261028e565b9050919050565b6103ab81610390565b82525050565b6103ba8161032d565b82525050565b60006040820190506103d560008301856103a2565b6103e260208301846103b1565b9392505050565b600082825260208201905092915050565b7f416d6f756e74206d757374206265203e20300000000000000000000000000000600082015250565b60006104306012836103e9565b915061043b826103fa565b602082019050919050565b6000602082019050818103600083015261045f81610423565b9050919050565b7f4e487b7100000000000000000000000000000000000000000000000000000000600052601160045260246000fd5b60006104a08261032d565b91506104ab8361032d565b92508282026104b98161032d565b915082820484148315176104d0576104cf610466565b5b5092915050565b7f4e487b7100000000000000000000000000000000000000000000000000000000600052601260045260246000fd5b60006105118261032d565b915061051c8361032d565b92508261052c5761052b6104d7565b5b828204905092915050565b600060408201905061054c60008301856103b1565b61055960208301846103b1565b9392505050565b7f5265656e7472616e637947756172643a207265656e7472616e742063616c6c00600082015250565b6000610596601f836103e9565b91506105a182610560565b602082019050919050565b600060208201905081810360008301526105c581610589565b905091905056fea2646970667358221220b5999bdaeb4df77d9eac4a42be3b3d3ed3f43032fd6e1cadfd5c7dde9d14ecf264736f6c63430008180033",
  "linkReferences": {},
  "deployedLinkReferences": {}
}