{
  "_format": "hh-sol-artifact-1",
  "contractName": "WithdrawalManager",
  "sourceName": "contracts/WithdrawalManager.sol",
  "abi": [
    {
      "inputs": [
        {
          "internalType": "address",
          "name": "_stader",
          "type": "address"
        },
        {
          "internalType": "address",
          "name": "_rocketPool",
          "type": "address"
        },
        {
          "internalType": "address",
          "name": "_lido",
          "type": "address"
        }
      ],
      "stateMutability": "nonpayable",
      "type": "constructor"
    },
    {
      "inputs": [],
      "name": "lido",
      "outputs": [
        {
          "internalType": "contract IMockLido",
          "name": "",
          "type": "address"
        }
      ],
      "stateMutability": "view",
      "type": "function"
    },
    {
      "inputs": [],
      "name": "lsETH",
      "outputs": [
        {
          "internalType": "contract IMockLsETH",
          "name": "",
          "type": "address"
        }
      ],
      "stateMutability": "view",
      "type": "function"
    },
    {
      "inputs": [],
      "name": "rETH",
      "outputs": [
        {
          "internalType": "contract IMockRETH",
          "name": "",
          "type": "address"
        }
      ],
      "stateMutability": "view",
      "type": "function"
    },
    {
      "inputs": [],
      "name": "rocketPool",
      "outputs": [
        {
          "internalType": "contract IMockRocketPool",
          "name": "",
          "type": "address"
        }
      ],
      "stateMutability": "view",
      "type": "function"
    },
    {
      "inputs": [],
      "name": "stETH",
      "outputs": [
        {
          "internalType": "contract IMockStETH",
          "name": "",
          "type": "address"
        }
      ],
      "stateMutability": "view",
      "type": "function"
    },
    {
      "inputs": [],
      "name": "stader",
      "outputs": [
        {
          "internalType": "contract IMockStader",
          "name": "",
          "type": "address"
        }
      ],
      "stateMutability": "view",
      "type": "function"
    },
    {
      "inputs": [
        {
          "internalType": "uint256",
          "name": "oLSTAmount",
          "type": "uint256"
        },
        {
          "internalType": "uint256",
          "name": "A",
          "type": "uint256"
        },
        {
          "internalType": "uint256",
          "name": "B",
          "type": "uint256"
        },
        {
          "internalType": "uint256",
          "name": "rate",
          "type": "uint256"
        },
        {
          "internalType": "address",
          "name": "recipientContract",
          "type": "address"
        }
      ],
      "name": "withdrawETH",
      "outputs": [
        {
          "internalType": "address",
          "name": "user",
          "type": "address"
        },
        {
          "internalType": "uint256",
          "name": "amountETH",
          "type": "uint256"
        }
      ],
      "stateMutability": "nonpayable",
      "type": "function"
    },
    {
      "stateMutability": "payable",
      "type": "receive"
    }
  ],
  "bytecode": "0x60806040523480156200001157600080fd5b5060405162001979380380620019798339818101604052810190620000379190620003f1565b600160008190555082600160006101000a81548173ffffffffffffffffffffffffffffffffffffffff021916908373ffffffffffffffffffffffffffffffffffffffff160217905550600160009054906101000a900473ffffffffffffffffffffffffffffffffffffffff1673ffffffffffffffffffffffffffffffffffffffff16637463107e6040518163ffffffff1660e01b8152600401602060405180830381865afa158015620000ee573d6000803e3d6000fd5b505050506040513d601f19601f820116820180604052508101906200011491906200044d565b600260006101000a81548173ffffffffffffffffffffffffffffffffffffffff021916908373ffffffffffffffffffffffffffffffffffffffff16021790555081600560006101000a81548173ffffffffffffffffffffffffffffffffffffffff021916908373ffffffffffffffffffffffffffffffffffffffff160217905550600560009054906101000a900473ffffffffffffffffffffffffffffffffffffffff1673ffffffffffffffffffffffffffffffffffffffff166355ba80aa6040518163ffffffff1660e01b8152600401602060405180830381865afa15801562000203573d6000803e3d6000fd5b505050506040513d601f19601f820116820180604052508101906200022991906200044d565b600660006101000a81548173ffffffffffffffffffffffffffffffffffffffff021916908373ffffffffffffffffffffffffffffffffffffffff16021790555080600360006101000a81548173ffffffffffffffffffffffffffffffffffffffff021916908373ffffffffffffffffffffffffffffffffffffffff160217905550600360009054906101000a900473ffffffffffffffffffffffffffffffffffffffff1673ffffffffffffffffffffffffffffffffffffffff166363a41e8e6040518163ffffffff1660e01b8152600401602060405180830381865afa15801562000318573d6000803e3d6000fd5b505050506040513d601f19601f820116820180604052508101906200033e91906200044d565b600460006101000a81548173ffffffffffffffffffffffffffffffffffffffff021916908373ffffffffffffffffffffffffffffffffffffffff1602179055505050506200047f565b600080fd5b600073ffffffffffffffffffffffffffffffffffffffff82169050919050565b6000620003b9826200038c565b9050919050565b620003cb81620003ac565b8114620003d757600080fd5b50565b600081519050620003eb81620003c0565b92915050565b6000806000606084860312156200040d576200040c62000387565b5b60006200041d86828701620003da565b93505060206200043086828701620003da565b92505060406200044386828701620003da565b9150509250925092565b60006020828403121562000466576200046562000387565b5b60006200047684828501620003da565b91505092915050565b6114ea806200048f6000396000f3fe6080604052600436106100745760003560e01c80638a5d56d81161004e5780638a5d56d814610114578063c1fe3e481461013f578063ca8aa0e41461016a578063ce79ecad146101955761007b565b80630ca7893b146100805780631c723b82146100ab57806323509a2d146100e95761007b565b3661007b57005b600080fd5b34801561008c57600080fd5b506100956101c0565b6040516100a29190610c65565b60405180910390f35b3480156100b757600080fd5b506100d260048036038101906100cd9190610cf9565b6101e6565b6040516100e0929190610d92565b60405180910390f35b3480156100f557600080fd5b506100fe610acf565b60405161010b9190610ddc565b60405180910390f35b34801561012057600080fd5b50610129610af5565b6040516101369190610e18565b60405180910390f35b34801561014b57600080fd5b50610154610b1b565b6040516101619190610e54565b60405180910390f35b34801561017657600080fd5b5061017f610b41565b60405161018c9190610e90565b60405180910390f35b3480156101a157600080fd5b506101aa610b67565b6040516101b79190610ecc565b60405180910390f35b600560009054906101000a900473ffffffffffffffffffffffffffffffffffffffff1681565b6000806101f1610b8d565b60008711610234576040517f08c379a000000000000000000000000000000000000000000000000000000000815260040161022b90610f44565b60405180910390fd5b620186a085876102449190610f93565b1115610285576040517f08c379a000000000000000000000000000000000000000000000000000000000815260040161027c90611013565b60405180910390fd5b6000670de0b6b3a7640000858961029c9190611033565b6102a691906110a4565b90506000620186a088836102ba9190611033565b6102c491906110a4565b90506000620186a088846102d89190611033565b6102e291906110a4565b905060008183856102f391906110d5565b6102fd91906110d5565b905060008311156105375782600460009054906101000a900473ffffffffffffffffffffffffffffffffffffffff1673ffffffffffffffffffffffffffffffffffffffff166370a08231306040518263ffffffff1660e01b81526004016103649190611109565b602060405180830381865afa158015610381573d6000803e3d6000fd5b505050506040513d601f19601f820116820180604052508101906103a59190611139565b10156103e6576040517f08c379a00000000000000000000000000000000000000000000000000000000081526004016103dd906111b2565b60405180910390fd5b600460009054906101000a900473ffffffffffffffffffffffffffffffffffffffff1673ffffffffffffffffffffffffffffffffffffffff1663095ea7b3600360009054906101000a900473ffffffffffffffffffffffffffffffffffffffff16856040518363ffffffff1660e01b8152600401610465929190610d92565b6020604051808303816000875af1158015610484573d6000803e3d6000fd5b505050506040513d601f19601f820116820180604052508101906104a8919061120a565b50600360009054906101000a900473ffffffffffffffffffffffffffffffffffffffff1673ffffffffffffffffffffffffffffffffffffffff1663db006a75846040518263ffffffff1660e01b81526004016105049190611237565b600060405180830381600087803b15801561051e57600080fd5b505af1158015610532573d6000803e3d6000fd5b505050505b600082111561076f5781600660009054906101000a900473ffffffffffffffffffffffffffffffffffffffff1673ffffffffffffffffffffffffffffffffffffffff166370a08231306040518263ffffffff1660e01b815260040161059c9190611109565b602060405180830381865afa1580156105b9573d6000803e3d6000fd5b505050506040513d601f19601f820116820180604052508101906105dd9190611139565b101561061e576040517f08c379a00000000000000000000000000000000000000000000000000000000081526004016106159061129e565b60405180910390fd5b600660009054906101000a900473ffffffffffffffffffffffffffffffffffffffff1673ffffffffffffffffffffffffffffffffffffffff1663095ea7b3600560009054906101000a900473ffffffffffffffffffffffffffffffffffffffff16846040518363ffffffff1660e01b815260040161069d929190610d92565b6020604051808303816000875af11580156106bc573d6000803e3d6000fd5b505050506040513d601f19601f820116820180604052508101906106e0919061120a565b50600560009054906101000a900473ffffffffffffffffffffffffffffffffffffffff1673ffffffffffffffffffffffffffffffffffffffff1663db006a75836040518263ffffffff1660e01b815260040161073c9190611237565b600060405180830381600087803b15801561075657600080fd5b505af115801561076a573d6000803e3d6000fd5b505050505b60008111156109a75780600260009054906101000a900473ffffffffffffffffffffffffffffffffffffffff1673ffffffffffffffffffffffffffffffffffffffff166370a08231306040518263ffffffff1660e01b81526004016107d49190611109565b602060405180830381865afa1580156107f1573d6000803e3d6000fd5b505050506040513d601f19601f820116820180604052508101906108159190611139565b1015610856576040517f08c379a000000000000000000000000000000000000000000000000000000000815260040161084d9061130a565b60405180910390fd5b600260009054906101000a900473ffffffffffffffffffffffffffffffffffffffff1673ffffffffffffffffffffffffffffffffffffffff1663095ea7b3600160009054906101000a900473ffffffffffffffffffffffffffffffffffffffff16836040518363ffffffff1660e01b81526004016108d5929190610d92565b6020604051808303816000875af11580156108f4573d6000803e3d6000fd5b505050506040513d601f19601f82011682018060405250810190610918919061120a565b50600160009054906101000a900473ffffffffffffffffffffffffffffffffffffffff1673ffffffffffffffffffffffffffffffffffffffff1663db006a75826040518263ffffffff1660e01b81526004016109749190611237565b600060405180830381600087803b15801561098e57600080fd5b505af11580156109a2573d6000803e3d6000fd5b505050505b60008183856109b69190610f93565b6109c09190610f93565b905080471015610a05576040517f08c379a00000000000000000000000000000000000000000000000000000000081526004016109fc90611376565b60405180910390fd5b60008873ffffffffffffffffffffffffffffffffffffffff1682604051610a2b906113c7565b60006040518083038185875af1925050503d8060008114610a68576040519150601f19603f3d011682016040523d82523d6000602084013e610a6d565b606091505b5050905080610ab1576040517f08c379a0000000000000000000000000000000000000000000000000000000008152600401610aa890611428565b60405180910390fd5b338297509750505050505050610ac5610bdc565b9550959350505050565b600360009054906101000a900473ffffffffffffffffffffffffffffffffffffffff1681565b600260009054906101000a900473ffffffffffffffffffffffffffffffffffffffff1681565b600460009054906101000a900473ffffffffffffffffffffffffffffffffffffffff1681565b600660009054906101000a900473ffffffffffffffffffffffffffffffffffffffff1681565b600160009054906101000a900473ffffffffffffffffffffffffffffffffffffffff1681565b600260005403610bd2576040517f08c379a0000000000000000000000000000000000000000000000000000000008152600401610bc990611494565b60405180910390fd5b6002600081905550565b6001600081905550565b600073ffffffffffffffffffffffffffffffffffffffff82169050919050565b6000819050919050565b6000610c2b610c26610c2184610be6565b610c06565b610be6565b9050919050565b6000610c3d82610c10565b9050919050565b6000610c4f82610c32565b9050919050565b610c5f81610c44565b82525050565b6000602082019050610c7a6000830184610c56565b92915050565b600080fd5b6000819050919050565b610c9881610c85565b8114610ca357600080fd5b50565b600081359050610cb581610c8f565b92915050565b6000610cc682610be6565b9050919050565b610cd681610cbb565b8114610ce157600080fd5b50565b600081359050610cf381610ccd565b92915050565b600080600080600060a08688031215610d1557610d14610c80565b5b6000610d2388828901610ca6565b9550506020610d3488828901610ca6565b9450506040610d4588828901610ca6565b9350506060610d5688828901610ca6565b9250506080610d6788828901610ce4565b9150509295509295909350565b610d7d81610cbb565b82525050565b610d8c81610c85565b82525050565b6000604082019050610da76000830185610d74565b610db46020830184610d83565b9392505050565b6000610dc682610c32565b9050919050565b610dd681610dbb565b82525050565b6000602082019050610df16000830184610dcd565b92915050565b6000610e0282610c32565b9050919050565b610e1281610df7565b82525050565b6000602082019050610e2d6000830184610e09565b92915050565b6000610e3e82610c32565b9050919050565b610e4e81610e33565b82525050565b6000602082019050610e696000830184610e45565b92915050565b6000610e7a82610c32565b9050919050565b610e8a81610e6f565b82525050565b6000602082019050610ea56000830184610e81565b92915050565b6000610eb682610c32565b9050919050565b610ec681610eab565b82525050565b6000602082019050610ee16000830184610ebd565b92915050565b600082825260208201905092915050565b7f416d6f756e74206d757374206265203e20300000000000000000000000000000600082015250565b6000610f2e601283610ee7565b9150610f3982610ef8565b602082019050919050565b60006020820190508181036000830152610f5d81610f21565b9050919050565b7f4e487b7100000000000000000000000000000000000000000000000000000000600052601160045260246000fd5b6000610f9e82610c85565b9150610fa983610c85565b9250828201905080821115610fc157610fc0610f64565b5b92915050565b7f496e76616c69642070657263656e746167657300000000000000000000000000600082015250565b6000610ffd601383610ee7565b915061100882610fc7565b602082019050919050565b6000602082019050818103600083015261102c81610ff0565b9050919050565b600061103e82610c85565b915061104983610c85565b925082820261105781610c85565b9150828204841483151761106e5761106d610f64565b5b5092915050565b7f4e487b7100000000000000000000000000000000000000000000000000000000600052601260045260246000fd5b60006110af82610c85565b91506110ba83610c85565b9250826110ca576110c9611075565b5b828204905092915050565b60006110e082610c85565b91506110eb83610c85565b925082820390508181111561110357611102610f64565b5b92915050565b600060208201905061111e6000830184610d74565b92915050565b60008151905061113381610c8f565b92915050565b60006020828403121561114f5761114e610c80565b5b600061115d84828501611124565b91505092915050565b7f5661756c743a2073744554482073686f727466616c6c00000000000000000000600082015250565b600061119c601683610ee7565b91506111a782611166565b602082019050919050565b600060208201905081810360008301526111cb8161118f565b9050919050565b60008115159050919050565b6111e7816111d2565b81146111f257600080fd5b50565b600081519050611204816111de565b92915050565b6000602082840312156112205761121f610c80565b5b600061122e848285016111f5565b91505092915050565b600060208201905061124c6000830184610d83565b92915050565b7f5661756c743a20724554482073686f727466616c6c0000000000000000000000600082015250565b6000611288601583610ee7565b915061129382611252565b602082019050919050565b600060208201905081810360008301526112b78161127b565b9050919050565b7f5661756c743a206c734554482073686f727466616c6c00000000000000000000600082015250565b60006112f4601683610ee7565b91506112ff826112be565b602082019050919050565b60006020820190508181036000830152611323816112e7565b9050919050565b7f496e73756666696369656e742045544820746f2073656e640000000000000000600082015250565b6000611360601883610ee7565b915061136b8261132a565b602082019050919050565b6000602082019050818103600083015261138f81611353565b9050919050565b600081905092915050565b50565b60006113b1600083611396565b91506113bc826113a1565b600082019050919050565b60006113d2826113a4565b9150819050919050565b7f455448207472616e73666572206661696c656400000000000000000000000000600082015250565b6000611412601383610ee7565b915061141d826113dc565b602082019050919050565b6000602082019050818103600083015261144181611405565b9050919050565b7f5265656e7472616e637947756172643a207265656e7472616e742063616c6c00600082015250565b600061147e601f83610ee7565b915061148982611448565b602082019050919050565b600060208201905081810360008301526114ad81611471565b905091905056fea264697066735822122080807821ae5543aaac94b7de470b42f293a6eff60b854f7215d4c367b0d240ee64736f6c63430008180033",
  "linkReferences": {},
  "deployedLinkReferences": {}
}